:100000000C942A000C9434000C9434000C943400AA
:100010000C9434000C9434000C9434000C94340090
:100020000C9434000C9434000C9434000C94340080
:100030000C9434000C9434000C9434000C94340070
:100040000C9434000C9434000C9434000C94340060
:100050000C94340011241FBECFE5D8E0DEBFCDBF25
:100060000E948B000C94C9000C940000DF93CF9386
:10007000CDB7DEB7ADE2B0E0EDE2F0E080818062C6
:100080008C93A7E3B0E0E7E3F0E0808180618C939C
:10009000ADE2B0E0EDE2F0E0808180648C93ADE20F
:1000A000B0E0EDE2F0E080818F7E8C93ADE2B0E0D5
:1000B000EDE2F0E0808181608C93ADE2B0E0EDE2B2
:1000C000F0E080818D7F8C93AEE2B0E0EEE2F0E074
:1000D00080818E7F8C93ADE2B0E0EDE2F0E0808134
:1000E0008B7F8C93ADE2B0E0EDE2F0E08081877F22
:1000F0008C93CF91DF910895DF93CF93CDB7DEB787
:10010000EEE2F0E080818823DCF7EFE2F0E080812E
:10011000CF91DF910895DF93CF9300D0CDB7DEB7B5
:10012000A4E3B0E0E4E3F0E0808184608C93A4E396
:10013000B0E0E4E3F0E0808180688C93A4E3B0E079
:10014000E4E3F0E0808180648C930E9436000E949A
:100150007C00282F30E03A83298389819A81009797
:1001600031F029813A812330310551F0F0CFA5E3F8
:10017000B0E0E5E3F0E0908184E089278C93E7CF5D
:10018000A5E3B0E0E5E3F0E0908180E489278C937B
:06019000DECFF894FFCF62
:00000001FF
