:100000000C942A000C943F000C943F000C943F0089
:100010000C943F000C943F000C943F000C943F0064
:100020000C943F000C943F000C943F000C943F0054
:100030000C943F000C943F000C943F000C943F0044
:100040000C943F000C943F000C943F000C943F0034
:100050000C943F0011241FBECFE5D8E0DEBFCDBF1A
:1000600010E0A0E6B0E0EEE3F7E002C005900D92EC
:10007000A838B107D9F70E9460030C949D030C9433
:100080000000DF93CF93CDB7DEB7E7E3F0E080EA7F
:100090008083EDE2F0E081E58083CF91DF910895E8
:1000A000DF93CF930F92CDB7DEB78983EFE2F0E015
:1000B00089818083EEE2F0E080818823DCF70F9075
:1000C000CF91DF910895DF93CF93CDB7DEB7E7E30C
:1000D000F0E080E48083EDE2F0E080E48083CF9183
:1000E000DF910895DF93CF93CDB7DEB7EEE2F0E076
:1000F00080818823DCF7EFE2F0E08081CF91DF910F
:100100000895DF93CF9300D000D0CDB7DEB78AE05B
:1001100090E09C838B831A82198250C189819A81D5
:10012000880F991F880F991FFC01E05AFF4F8081AB
:10013000882309F046C089819A81880F991F880F0A
:10014000991FFC01EF59FF4F80818130E9F4AAE348
:10015000B0E0EAE3F0E08081482F89819A81880F3E
:10016000991F880F991FFC01EF59FF4F8081282F9D
:1001700030E081E090E0022E02C0880F991F0A94BF
:10018000E2F7842B8C931DC0AAE3B0E0EAE3F0E031
:100190008081482F89819A81880F991F880F991F24
:1001A000FC01EF59FF4F8081282F30E081E090E083
:1001B000022E02C0880F991F0A94E2F780958423CB
:1001C0008C9389819A81880F991F880F991FFC0150
:1001D000E05AFF4F8081813009F046C089819A81C1
:1001E000880F991F880F991FFC01EF59FF4F8081DD
:1001F0008130E9F4A7E3B0E0E7E3F0E08081482F45
:1002000089819A81880F991F880F991FFC01EF59E6
:10021000FF4F8081282F30E081E090E0022E02C065
:10022000880F991F0A94E2F7842B8C931DC0A7E3D3
:10023000B0E0E7E3F0E08081482F89819A81880F60
:10024000991F880F991FFC01EF59FF4F8081282FBC
:1002500030E081E090E0022E02C0880F991F0A94DE
:10026000E2F7809584238C9389819A81880F991F66
:10027000880F991FFC01E05AFF4F8081823009F0FE
:1002800046C089819A81880F991F880F991FFC01A8
:10029000EF59FF4F80818130E9F4A4E3B0E0E4E35B
:1002A000F0E08081482F89819A81880F991F880FFB
:1002B000991FFC01EF59FF4F8081282F30E081E02A
:1002C00090E0022E02C0880F991F0A94E2F7842B57
:1002D0008C931DC0A4E3B0E0E4E3F0E08081482FFC
:1002E00089819A81880F991F880F991FFC01EF5906
:1002F000FF4F8081282F30E081E090E0022E02C085
:10030000880F991F0A94E2F7809584238C93898142
:100310009A81880F991F880F991FFC01E05AFF4F9F
:100320008081833009F045C089819A81880F991FA7
:10033000880F991FFC01EF59FF4F80818130E9F44C
:10034000A1E3B0E0E1E3F0E08081482F89819A8168
:10035000880F991F880F991FFC01EF59FF4F80816B
:10036000282F30E081E090E0022E02C0880F991F14
:100370000A94E2F7842B8C931CC0A1E3B0E0E1E384
:10038000F0E08081482F89819A81880F991F880F1A
:10039000991FFC01EF59FF4F8081282F30E081E049
:1003A00090E002C0880F991F2A95E2F78095842378
:1003B0008C9389819A8101969A83898329813A81D4
:1003C0008B819C81281739070CF4A8CE0F900F90D1
:1003D0000F900F90CF91DF910895DF93CF9300D0CE
:1003E00000D000D0CDB7DEB78B838B818695869504
:1003F00086958A838B81877089838A81282F30E054
:100400003E832D834D815E814130510549F18D81BF
:100410009E818230910534F42D813E812115310574
:1004200061F057C04D815E814230510561F18D818F
:100430009E8183309105D1F14CC0E9E3F0E08081E9
:10044000282F30E08981882F90E0A90102C05595BE
:1004500047958A95E2F7CA01582F51705C833BC0DB
:10046000E6E3F0E08081282F30E08981882F90E05A
:10047000A90102C0559547958A95E2F7CA01582F00
:1004800051705C8328C0E3E3F0E08081282F30E0E6
:100490008981882F90E0A90102C0559547958A95DA
:1004A000E2F7CA01582F51705C8315C0E0E3F0E019
:1004B0008081282F30E08981882F90E0A90102C037
:1004C000559547958A95E2F7CA01582F51705C837C
:1004D00002C08FEF8C838C8126960FB6F894DEBF16
:1004E0000FBECDBFCF91DF910895DF93CF9300D0A2
:1004F00000D000D0CDB7DEB78B836C838B8186951F
:10050000869586958A838B81877089838A81282F37
:1005100030E03E832D838D819E818130910509F4E9
:1005200043C02D813E81223031052CF48D819E8186
:10053000009771F0BCC02D813E812230310509F455
:100540005FC08D819E818330910509F485C0AFC065
:100550008C818130A1F4ABE3B0E0EBE3F0E080818B
:10056000482F8981282F30E081E090E0022E02C0E0
:10057000880F991F0A94E2F7842B8C9398C0ABE301
:10058000B0E0EBE3F0E08081482F8981282F30E054
:1005900081E090E0022E02C0880F991F0A94E2F7D2
:1005A000809584238C9383C08C818130A1F4A8E34F
:1005B000B0E0E8E3F0E08081482F8981282F30E027
:1005C00081E090E0022E02C0880F991F0A94E2F7A2
:1005D000842B8C936CC0A8E3B0E0E8E3F0E080816A
:1005E000482F8981282F30E081E090E0022E02C060
:1005F000880F991F0A94E2F7809584238C9357C043
:100600008C818130A1F4A5E3B0E0E5E3F0E08081E6
:10061000482F8981282F30E081E090E0022E02C02F
:10062000880F991F0A94E2F7842B8C9340C0A5E3AE
:10063000B0E0E5E3F0E08081482F8981282F30E0A9
:1006400081E090E0022E02C0880F991F0A94E2F721
:10065000809584238C932BC08C818130A1F4A2E3FC
:10066000B0E0E2E3F0E08081482F8981282F30E07C
:1006700081E090E0022E02C0880F991F0A94E2F7F1
:10068000842B8C9314C0A2E3B0E0E2E3F0E080811D
:10069000482F8981282F30E081E090E0022E02C0AF
:1006A000880F991F0A94E2F7809584238C932696ED
:1006B0000FB6F894DEBF0FBECDBFCF91DF91089586
:1006C000DF93CF930F92CDB7DEB70E946300AAE30A
:1006D000B0E0EAE3F0E0808181608C93AAE3B0E0CF
:1006E000EAE3F0E0808182608C930E94720089834B
:1006F0008981803341F4ABE3B0E0EBE3F0E080814B
:1007000081608C93F2CF8981813341F4ABE3B0E017
:10071000EBE3F0E0808182608C93E7CFABE3B0E065
:10072000EBE3F0E080818E7F8C93ABE3B0E0EBE312
:0E073000F0E080818D7F8C93D8CFF894FFCFBE
:10073E0001000000010100000102000001030000A1
:10074E000104000001050000010601000107000080
:08075E00030201000306010083
:00000001FF
