:100000000C942A000C9434000C9434000C943400AA
:100010000C9434000C9434000C9434000C94340090
:100020000C9434000C9434000C9434000C94340080
:100030000C9434000C9434000C9434000C94340070
:100040000C9434000C9434000C9434000C94340060
:100050000C94340011241FBECFE5D8E0DEBFCDBF25
:100060000E94DD000C94FC000C940000DF93CF9301
:1000700000D000D0CDB7DEB769837A838B839C83B1
:10008000E0E4F0E089819A81AB81BC81892F9A2FCD
:10009000AB2FBB278083E9E2F0E089818083EAE22D
:1000A000F0E088E18083E0E4F0E08EE880830F9068
:1000B0000F900F900F90CF91DF910895DF93CF9322
:1000C0000F92CDB7DEB78983EBE2F0E08081882F15
:1000D00090E0807290700097B9F3ECE2F0E08981D3
:1000E00080830F90CF91DF910895DF93CF93CDB7A9
:1000F000DEB7EBE2F0E080818823DCF7ECE2F0E0B1
:100100008081CF91DF910895DF93CF93CDB7DEB794
:10011000A7E3B0E0E7E3F0E0808180628C93A7E39F
:10012000B0E0E7E3F0E0808180688C93ADE2B0E07E
:10013000EDE2F0E0808180648C93ADE2B0E0EDE22E
:10014000F0E0808180618C93ADE2B0E0EDE2F0E020
:10015000808181608C93ADE2B0E0EDE2F0E08081DF
:100160008D7F8C93AEE2B0E0EEE2F0E080818E7F96
:100170008C93ADE2B0E0EDE2F0E080818B7F8C9378
:10018000ADE2B0E0EDE2F0E08081877F8C93CF912B
:10019000DF910895DF93CF930F92CDB7DEB78983B8
:1001A000EFE2F0E089818083EEE2F0E08081882355
:1001B000DCF70F90CF91DF910895DF93CF930F92EB
:1001C000CDB7DEB767E670E080E090E00E943600D1
:1001D0000E94840019820E9475008983898180337E
:1001E00021F480E00E94CA00F6CF8981833399F719
:0C01F00083E00E94CA00EFCFF894FFCF1C
:00000001FF
